:020000040000FA
:0400000A9900C0DEBB
:1000000000400020CDA200000DA300000FA30000BF
:1000100000000000000000000000000000000000E0
:1000200000000000000000000000000011A300001C
:10003000000000000000000013A3000015A3000052
:1000400017A3000009770000B9A6000017A300005D
:1000500017A300000000000025A8000017A300005F
:100060004D4D000021AC000017A3000017A30000B5
:1000700017A3000017A3000017A3000017A3000098
:1000800017A30000D1A8000017A3000017A30000C9
:1000900017A3000017A3000017A3000017A3000078
:1000A00017A3000017A300000000000000000000DC
:1000B0000000000000000000000000000000000040
:1000C00010B5064C2378002B07D1054B002B02D02E
:1000D000044800E000BF0123237010BD8802002007
:1000E00000000000AC5C0100044B10B5002B03D0F5
:1000F0000349044800E000BF10BDC04600000000F6
:100100008C020020AC5C0100164B002B00D1144B7C
:100110009D46402292029A1A924600218B460F4633
:100120001348144A121A10F0DDFC0F4B002B00D0BC
:1001300098470E4B002B00D0984700200021040068
:100140000D000D48002802D00C4800E000BF10F060
:1001500069FC200029000AF0CBFB10F03DFCC046F2
:100160000000080000400020000000000000000027
:1001700088020020F02F0020000000000000000096
:10018000024B1868431E984180007047D802002037
:1001900010B5034B01220349092007F0B1FB10BD44
:1001A0007039010078390100002070470020704745
:1001B000002070470020704710B5034B042203490C
:1001C0000D2007F09DFB10BD8C390100AC390100FA
:1001D00002000120104011D1042A0ED91368180919
:1001E00080B2002809D001388000031D1118097958
:1001F000002902D001309842F8D170470020FCE776
:100200000378002B03D05AB2002A01DB013070477B
:100210003F229343C03B59424B41C018037893435C
:10022000802BF4D10130F9E710B500240378002BBE
:1002300001D1200010BDFFF7E3FF0134F6E7020013
:1002400000787F2809DDDF2808DCF8238001DB0047
:10025000184053783F22134018437047EF280BDCB7
:10026000FC21537809019B010007000C0B4003435C
:1002700090783F221040EFE7F72812DCFC215378FA
:1002800089021B030B40E0218004490308403F2101
:100290000343D078084003439078FC228001120188
:1002A000E8E701204042D8E770B5002204000D00C5
:1002B000411C092005F05CF8002806D001236200EB
:1002C000134343600023A34200DB70BD9A00A9588A
:1002D000821891600133F6E770B5012803DC1C2019
:1002E00001F0AAFE70BD01230C6811201C42F7D05A
:1002F0004868184206D1042804D90F230268134025
:10030000042B01D00E20EBE704F078FE641005000A
:10031000002C03DDFFF788FFA04205DA1220DFE79B
:10032000FFF76EFF0500013C2800012CF8D1FFF714
:1003300086FF40002043D5E7F8B54D680F00EB0776
:1003400006D4042D04D90F232E683340092B03D083
:100350000B2001F071FEF8BD6B683609B6B25C1077
:10036000731EA3420FD8032120000DF09FFC6421CF
:10037000642803DC0100032800DA0321280089191E
:1003800005F028F805002B6800201B099BB2013BF3
:100390009C42E0D23A68A31C9B005A5101230134CD
:1003A00064001C436C60D6E7F0B585B0012803DC1F
:1003B0001C2001F041FE12E001254B682A00009349
:1003C000022806D08B682B4203D05D10002D00DC84
:1003D00015000122009B134203D00120404205B0CA
:1003E000F0BD009B042BF8D91B680F271E000C687A
:1003F0003E40042E30D101231C4205D1042C03D9E8
:1004000023681F40042F01D00E20D2E70098FFF789
:10041000DFFEA842E1DB009804F0F0FD06002000BA
:1004200004F0ECFD03780100002BD6D0681E3018D4
:1004300011F0B0FA0125041ECFD03378002B01D083
:10044000A64203D3680001252843C8E73000FFF720
:10045000D7FE01350600F0E7092E40D1009B5B680E
:1004600001935E10B542B8DC01231C422DD1042C4F
:100470002BD923683B40042B27D1200004F0BEFD7C
:1004800001230290019303976F1C009ABB00D05880
:10049000844204D1019B6800034318009FE7019B3D
:1004A00018420ED104280CD90368039A1340042B78
:1004B00007D104F0A3FD0100029811F035FA0028DD
:1004C000E8D03D00B742DFDD87E76B1C00999A005A
:1004D0008A58A242B6D01D00B342F6DD7DE7032E56
:1004E00000D07AE71A0992B25B0F92001E40961B69
:1004F000B54200DD71E701231C4227D1042C36D917
:1005000022681740032F17D1100980B2520F231D04
:1005100080003A400193801A019B361A1F18009BF5
:10052000681E0433B04200DD57E7019A1918BA4239
:100530001FD326D1013018E0042F18D1200004F079
:100540005DFD01902000FFF743FEE5E76410681EA3
:10055000FF2C01D928202CE7B04200DD3DE7009BAD
:100560001B181B790130A342F6D140006BE70F2026
:100570001FE70C78A4461478A44502D1013101325A
:10058000D5E70130CEE70000F0B50D0085B00128B9
:1005900004DC1C2001F050FD05B0F0BD0127086807
:1005A000384206D1042804D90F2102680A40042ADF
:1005B00001D00E20EEE76A681740FAD1042AF8D974
:1005C00013680B40042BF4D104F018FD0400686894
:1005D00004F014FD029011F0B1F9039000280FD13E
:1005E0002000FFF721FE0190019B0122591C0920E8
:1005F00004F0BEFE364E3060002815D10020CBE757
:100600000299200011F0C6F9001B4342434120002B
:100610000193019B5E1C0028E6D0039B0299C01841
:1006200011F0B8F90196F4E70122019B5B00134336
:100630004360039B002B18D12000FFF7E1FD019BD5
:100640000500BB4201DC3068A6E7291B200004F04E
:100650000DFF0028D2D0BB1C32689B0098502800A8
:10066000FFF7CEFD01372C00E9E7019B012B02D1FA
:100670002B68836090E70299200011F08BF9012527
:100680000700019B002F13D0AB42DCDB391B20009D
:1006900004F0ECFE0028B1D032680135AB00985070
:1006A000039B0299FC18200011F074F90700E8E799
:1006B000AB42C8DB200011F041F90100200004F03A
:1006C000D5FE00289AD001353368AD00E850BAE76E
:1006D000180C002010B504F075FC430001201843ED
:1006E00010BD0000C30711D404280FD90F230268DE
:1006F0001340032B0AD119400133591AC02349076B
:10070000DB051940024B1A40114301607047C04697
:10071000FFFFFF9F70B5002805DC1C2001F08CFC5A
:100720000500280070BD01220C68144201D10D2083
:10073000F4E701281CD04B681342F8D05B1013205B
:10074000FF2BEBD81A0619040A431A431B02134362
:100750006410E243D2171440E11C89101A000320F0
:1007600004F006FE051EDCD02100FFF7BBFFD8E732
:100770000023EDE7F7B507000E001C20012F06DD72
:100780004C68012322001A40009203D10D2001F091
:1007900053FC53E0022F02D08A681A42F6D001239C
:1007A00035681D4200D0A9E0042D00D8A6E01C4108
:1007B000002C00DC1C000F2029680840092828D1E3
:1007C0006B685B100093022F05D0B368009A5B1032
:1007D0009A4200DD0093009B01221D1B0135EB4373
:1007E000DB171D40691C092004F0C2FD071E09D05B
:1007F00001236D001D4303003268083345600099F2
:10080000A14201DA3800FEBD0134A100515802C3F3
:10081000F5E7042845D1280004F0F0FBFFF704FDBC
:100820000190022F04D0B3685B10984200DD019361
:10083000019BA34204DA002004F00CFE0700E1E76C
:10084000280004F0DBFB0700009BA34221DB28000B
:10085000009704F0D3FB05003800FFF7D1FC019BA3
:1008600001340700A342F7DA009BC41A200004F009
:10087000F1FD071EC6D004F0C1FB0190306804F002
:10088000BDFB2200009B591B4118019810F00EF986
:10089000B8E73800FFF7B4FC009B07000133009372
:1008A000D2E703282AD10B099BB2490F9B000140D4
:1008B000591A022F04D0B2685210914200DD110083
:1008C000A14205DA00220320110004F051FDB5E732
:1008D00003200E1B331DD9170140C91889100022AF
:1008E00004F046FD071E00D18CE7013631000334C9
:1008F000FFF7F8FE381D29193200C7E7212046E727
:10090000F7B5002804DC1C2001F096FB040014E07D
:100910000D6801272E003E4011D03D41FF2D01D929
:100920001320F1E700223900032004F021FD041E0A
:1009300003D03900FFF7D6FE25712000FEBD042D3F
:10094000EED90F232A681340042B1BD12800FFF790
:100950003FFCC31C07000320D9170140C9188910A8
:10096000320004F005FD041EE7D03900FFF7BAFE9F
:10097000280004F043FB231D01003A00180010F08A
:1009800095F8DAE7092B1FD103206B6832005B1062
:1009900001930333D9170140C918891004F0E8FC0A
:1009A000041ECAD00199FFF79DFE019B9E42C4DA46
:1009B000B300EB189B683B4204D05B10FF2BAFD811
:1009C000A21913710136F0E7032BA9D12C00B4E76B
:1009D00010B57F2902DC0170013010BD1A4B99421D
:1009E0000CDC40238A115B42134303703F230B400E
:1009F00080214942194341700230EEE7134B99427E
:100A000010DC20230A135B4213433F24802203702F
:100A10008B1152422340214013430A43437082709A
:100A20000330DAE70A4B9942D7DCF0230370603BCE
:100A30004370113B8A11FF3B1A4382703F221140E1
:100A40001943C1700430C8E7FF070000FFFF000032
:100A5000FF0F010010B5094C00222060022109207F
:100A600004F086FC2368002803D10A3001F0E4FA80
:100A700010BD032283604260FAE7C046180C0020D4
:100A800070B5C30710D544101320FF2C07D80022DF
:100A90000121032004F06CFC051E09D10A2001F09D
:100AA000CBFA0500280070BD0400601E8441EEE70B
:100AB0000121FFF717FE2C71F4E710B50124044063
:100AC00002D04410200010BD042810D90F23026862
:100AD0001340042B07D104F091FA21000A2210F0F0
:100AE000F5FF0400EEE7032B01D10430F5E70D20FC
:100AF00001F0A2FAE6E70000F0B50E0085B000288C
:100B000003DC1C2001F098FA17E00F6801243D0077
:100B1000254006D1042F1ED90F233A681340042B19
:100B20000DD13800FFF7C9FF02AC01002000FFF72C
:100B30004FFF011B200004F099FC040032E0092B58
:100B400009D17B685B100193019B9C4205DD01F09C
:100B500079FA002819D02A20D4E70134A300F858E4
:100B6000FFF7ABFF01237F280DDD154ADB1890420C
:100B700009DD144A0133904205DD0021124AC30FFA
:100B800082424B419B00ED18DEE7280004F062FC36
:100B9000041E07D0376804F031FA01250600019BD6
:100BA0009D4202DD200005B0F0BD0135AB00F858D4
:100BB000FFF783FF01003000FFF70AFF0600EEE7B2
:100BC000FF070000FFFF0000FF0F0100F7B5030063
:100BD00001900E001C20012B11DD0868FFF76DFF4E
:100BE00007007068FFF769FF019B05000124022BD5
:100BF00008D0B068FFF761FF041E03DC292001F074
:100C00001BFAFEBDAF421CDCE81B21000DF04EF8C4
:100C1000451C691C0022092004F0AAFB0028F0D022
:100C200001226B00134343609440002379009D42EE
:100C3000E7DD17009E000F438619B76001330919DD
:100C4000F5E7781B21000DF031F86442451CE0E720
:100C500010B504000120084010D104290DD90F233C
:100C60000A681340042B08D1080004F0C7F90100FA
:100C7000200010F059FE4342584110BD0020FCE70F
:100C8000F7B50E00012803DC1C2001F0D5F9FEBDEC
:100C90004D68EB0706D4042D04D90F222B681A40A7
:100CA000092A01D00B20F0E76A681B099BB2541097
:100CB000A34200D85C1E012731680F404810002F66
:100CC00035D12648FFF7C4FF01230190002813D136
:100CD00031682348FFF7BCFF002811D0002C0DD04D
:100CE0000122631C013C94409B005A5114436C60E8
:100CF00004E00137BA00AB50BC42FADA0020C6E784
:100D000001233068184223D1042821D902680E3308
:100D10001340042B1CD1FFF7D0FE002807D1316807
:100D20001048FFF795FF002812D01220ADE70028E9
:100D3000FBDD8442F9DB8300EB180433844209DCD9
:100D40000123621C013C9C40920053511C43CEE79E
:100D500011209AE75A6801301A60EEE7853A0100DF
:100D6000893A010034420100002310B50C000B70D9
:100D7000C30705D50D494210200010F099FD08E089
:100D80000B49002802D0042804D10A49200010F0A1
:100D9000AFFD10BD0428FCD90F2302681340042BBB
:100DA000F7D104F02BF904490200E5E7F84001000F
:100DB000344201008E3A0100903A0100F0B593B040
:100DC000060002911C20012E1DDD029B01251B68DF
:100DD0001C002C4000D0ADE0042B00D8E6E01A68DF
:100DE0000F231A40092A4AD10394039A02999200C8
:100DF0008A5817002F4005D1042A03D910681840DB
:100E0000092806D0222001F017F90190019813B0AB
:100E1000F0BD52685210A418039A01320392964210
:100E2000E3D1611C012204F0A3FA0190002802D151
:100E300000230193EAE7019B6400190025435D60EC
:100E40000831029ABB00D05802684368120992B276
:100E50005B109A4200D8531E0022934209DCDA4309
:100E6000D21713409B00C918039B01379F42E8DB50
:100E7000CCE794000519AD6801320D51EDE727006C
:100E8000032A59D10193029ABB00D3582B42B9D1FE
:100E9000042BB7D9186801990140032939D10209F7
:100EA00092B2430F92000B40D31A1C190137BE4275
:100EB000E9D10320E31CD9170140C9188910002289
:100EC00004F056FA01900028B2D000252100FFF767
:100ED00009FC019B1E1D029AAB00D45801231C4241
:100EE0001FD1042C1DD90F2123681940032918D1C3
:100EF000180980B25B0F80000B40C01A00238342A8
:100F000013DBC343DB17184001353618BD42E2DB63
:100F10007CE7042900D075E71800FFF759F9241879
:100F2000C4E72000FFF754F9E8E7E2181279F25419
:100F30000133E4E700273C000F25029ABB00D35899
:100F40000122134234D1042B32D918680100294000
:100F5000042935D11800FFF73BF924180137BE42A8
:100F6000EBD1200004F076FA0190002800D15FE771
:100F7000029FB600BB19041D029301233D681D4268
:100F800029D1042D27D90F262B681E40042E37D1D6
:100F90002800FFF71DF90600280004F02FF80100D3
:100FA000200032000FF082FDA41922E02700C3E7E1
:100FB000180005A9FFF7D8FE05A810F0BFFCCCE784
:100FC000032900D01EE7020992B2430F92000B40A2
:100FD000D31A1C19C2E705A92800FFF7C5FE05A80A
:100FE00010F0ACFC05A90500020020000FF05EFD2A
:100FF0006419029B0437BB42BFD10023237005E76D
:10100000032EF6D11A0992B25B0F92001E40961B76
:10101000291DC5E7F0B50D0097B0002806DC1C209F
:1010200001F00AF80700380017B0F0BD0C68012184
:1010300023000B40009306D1042C04D922680F33FF
:101040001A40092A01D00B20EAE762685210039285
:10105000002A03DC009804F0FDF9E3E7504A01920E
:1010600001280BD06868084208D1042806D9026814
:101070001340042B02D103F0C1FF0190019810F03E
:101080005DFC06000F27039B0834013B05935E437C
:10109000039B02909B00E3180493012320681842ED
:1010A00073D1042871D901680B003B409C46042B86
:1010B00003D1FFF78DF8861909E0032B6CD1624646
:1010C0000B099BB2490F9B0011405A1A9619049BB9
:1010D0000434A342E1D1300004F0BCF9071EA2D0D1
:1010E0002B680793029B002B03D0686803F086FFF0
:1010F0000190380003F082FF0400009B079A9B00D8
:10110000D3189E68300003F079FF012333400500B7
:101110000693002B01D1042E04D809A93000FFF753
:1011200023FE09AD280010F009FC069B0490002B5B
:101130000ED1042E0CD90F2133681940032907D191
:101140001A0992B25B0F92000B40D31A351D04931B
:101150002000049A29000FF0A9FC049BE418029BCC
:10116000002B0AD0059B009A934206DD2000029ACC
:1011700001990FF09BFC029BE418009B0133009344
:10118000009A039B9342B8D14DE709A9FFF7ECFD04
:1011900009A810F0D3FB8EE703F030FFF9E7C04653
:1011A0000B410100F0B58BB0012806DC1C2000F0DB
:1011B00043FF040020000BB0F0BD01230C680226A1
:1011C0001C4205D11E00042C02D923680E361E4095
:1011D000486803F013FFB349070010F0A5FB012591
:1011E00000281FD1B049380010F09EFB002800D124
:1011F0000225AE49380010F097FB002800D10425E5
:10120000AB49380010F090FB002800D10925A9490E
:10121000380010F089FB002800D1B5E16B1C03D128
:101220003020C4E76D42DDE7701E0828C2D80CF0FC
:101230009FFC09001F0054014000C1FFC1FFC1FF16
:10124000C1FFAF00A81E0728B4D80CF07DFC042E07
:1012500009B3B3B3B32A042C00D193E10124A9E765
:101260009548042C00D09548012104F0FFF8A0E730
:10127000681E08289ED80CF067FC059D18099D9DE6
:101280009D9D140064102BD0042493E78C496210B8
:1012900002A810F00DFB02A810F050FB010002A8FC
:1012A000E3E72000FFF7D6FB83E72000FFF7E8FB2A
:1012B0007FE7681E082800D97CE70CF059FC09007C
:1012C000130048007BFF7BFF7BFF7BFF7BFF1A0047
:1012D000200003F093FE794910F026FB0028D3D1BB
:1012E000002467E72000FFF7E8FB012440000443E7
:1012F00060E7200003F082FEFEF796FF714D411C6F
:101300000600002209202C6004F032F8041E01D1EE
:101310000A204CE70122730013432868636003F03E
:101320006DFE0123070000250193AE4200DC41E77A
:101330003800FEF784FF019AAB0040001043E31829
:1013400098603800FEF75CFF01350700EDE72000EC
:1013500003F054FE10F0F2FA5A4EC11C0500891039
:1013600000220320346004F003F8041ED0D0366855
:101370002900FFF7B7F9300003F040FE00239D423B
:1013800000DC17E7C15CE21811710133F7E70325B0
:101390006368681E5F10032800D90BE70CF0DEFBC2
:1013A00002125D3A012F0BD1A4683C4208D1042CF3
:1013B00000D8FFE60F2322681340012B00D1F9E685
:1013C0002D20F4E6012F03D1A4683C4200D0F1E6C1
:1013D0002C20ECE60136B300E058FFF76EFB01234A
:1013E0007F280CDD384ADB18904208DD374A01338C
:1013F000904204DD364A2B00904200DD0023019A22
:10140000D3180193B742E5DA00F01CFE002804D09F
:101410002A20CCE601260023F3E72A4D01982C6010
:1014200004F018F8041E00D15AE72E6803F0E6FD18
:101430000125AF4200DABDE60135AB00F1580123CA
:10144000194201D12720B2E6224B4910994201D915
:101450003120ACE6FFF7BCFAEBE70320FB1CD91701
:101460000140184DC918891000222C6003F080FF3C
:10147000041E00D14CE739002D68FFF733F9002333
:1014800001219F4200DC95E69A00AA1892680A4260
:10149000D8D05210FF2A01D9132088E6E018027133
:1014A0000133EEE75F3A0100673A01006E3A01004E
:1014B000753A01007A3A01008E3A01003442010087
:1014C000F8400100180C0020FF070000FFFF00009B
:1014D000FF0F0100FFFF100035002368681E1E0982
:1014E000B6B25B00B6009B0FF61A082800D961E679
:1014F0000CF03EFB0900120060FE190060FE60FE69
:1015000060FE60FE2C00012E00D059E723790424F0
:10151000002B00D04EE6E3E6012E00D058E72479F8
:101520006400344346E6204D30002C6003F092FF07
:10153000296804000423002800D1E9E61A1F964216
:1015400000DC37E6CA5CE2540133F7E7164D711C44
:10155000002209202C6003F00BFF041E286800D134
:10156000D6E6012573002B43636000239E4200DC16
:1015700020E6C21812799900520061182A438A6045
:101580000133F3E7032415E6701E082800D911E69D
:101590000CF0EEFA8BFE8BFEA2FFDDFE10FE10FEBD
:1015A00010FE10FEFDFEC046180C002010B50122F2
:1015B000002400280BDD0B681A40141E03D05C10B9
:1015C000E343DB171C400122904200D04A68611CB3
:1015D000092003F0CDFE002803D0012364001C4342
:1015E000446010BD0A6870B510000125284034D150
:1015F000042A32D90F24136849681C40092C17D1DA
:1016000054681B099BB22C41A34200D85C1E844243
:1016100005DC02200133984206DB00200FE0850044
:101620005519A9600130F2E7840011510130F2E749
:10163000032C12D1294203D1132000F0FDFC70BD10
:101640004910FF29F8D81B099BB204329B00D3181C
:101650009342E2D911700132FAE70B2000F0ECFC62
:10166000DBE700000123F7B500254E680C0033408E
:101670000193AB420ED11D00042E0BD90F2233680B
:101680001A40092A14D172681B099BB25510AB424B
:1016900000D85D1E27687C10FB074CD439003E48FB
:1016A000FFF7D6FA002829D0002D12D112203EE0F3
:1016B000042A04D13000FEF78BFD0500EAE7019D06
:1016C000032AE7D11D09ADB25B0FAD001340ED1A3F
:1016D000E0E710F077F829000CF0CEFB4C1C019BE2
:1016E000002B56D1042E54D932680F331340092BE6
:1016F00028D10134A400A4592000FEBD3900274898
:10170000FFF7A6FA00281BD1042F0FD90F233A6840
:101710001340042B0AD13800FFF7CFF9041E0AD179
:1017200039001F48FFF794FA0028BFD1112000F0BC
:1017300083FC0400E0E7002CB8DDA542CFDAB5E772
:101740002C00CCE7042B1CD1300003F057FC050023
:10175000012C0EDCFEF754FD461B300003F07AFE30
:10176000041EC9D003F04AFC320029000FF09EF994
:10177000C2E72B78013C002B98D02800FEF740FDF3
:10178000E5E7032B05D13419E37801245B001C4302
:10179000B2E70B20CBE7C046583A0100893A010076
:1017A00034420100F7B54D680E002A0001210A40BD
:1017B0002FD1042D2DD90F242B68B7681C40092C7C
:1017C00014D169681B099BB24C100192A34200D846
:1017D0005C1E31683448FFF73BFA00282DD00F23F8
:1017E0002A681340092B1DD1012317E0032C10D1C7
:1017F0000F4203D1132000F01FFCFEBD7A100192AE
:10180000FF2AF7D81A0992B25B0F92001C40141BF2
:10181000DFE70B20EFE701339A00AF509C42FADA82
:101820000020EAE7032BFBD12B0001335A1BA24215
:10183000F6DC6A461279DA70F7E736687010F3075B
:1018400019D431001948FFF703FA002822D1042ED9
:101850001ED90F2332681340042B19D13000FFF733
:101860002CF9002807D131001148FFF7F1F90028C1
:101870000ED01220BFE70028FBDD8442F9DB0F23E6
:101880002A681340092B07D1013080004751C7E770
:101890001120B0E72000F2E7032BC1D16B461B7982
:1018A0002D18EB70BCE7C046853A0100893A01006B
:1018B0003442010070B501240868204207D1042891
:1018C00005D90F2501680D40092D02D1446820007B
:1018D00070BD032D08D10A0992B24B0F92002B4024
:1018E000D31A5B001C43F2E7042DF0D103F086FB12
:1018F000FEF79AFC40000443E9E7000010B5034BF3
:101900000F220349012005F0FBFF10BDE039010063
:10191000DB390100024A1368013313607047C04687
:10192000A4020020024AD3680133D3607047C04646
:10193000A4020020024A9369013393617047C046B4
:10194000A4020020024A536A013353627047C04622
:10195000A402002010B5002802DD0B68DA0703D4CA
:10196000112000F069FB10BD5B10013B0020032B30
:10197000F9D80C225343014A9850F4E7A4020020FE
:1019800010B5002803DD01200B68034203D11120AC
:1019900000F052FB10BD0C225B10013B5343024A86
:1019A0009B585B001843F5E7A402002010B5040023
:1019B000807908F00BFFE07908F008FF01235B4213
:1019C000E3800023236010BDF7B5012803DC1C2051
:1019D00000F032FB2CE001230C681C4202D04E6860
:1019E0001E4201D11120F3E76410671E032F20D897
:1019F0000C207843104D7610F3B22818023C019366
:101A0000FFF7D4FF0D49022C02D80D4BA400E1587A
:101A1000FF2430000422204008F064FE0C235F43C2
:101A20006B4600201B79E851ED19AB71EC712872FF
:101A3000FEBD3520CCE7C046A402002015190000E9
:101A4000343B010010B5002802DD0868C30705D447
:101A5000112000F0F1FA0400200010BD4010013800
:101A600000240328F8D80C2343430248C018FFF78A
:101A70009DFFF1E7A4020020F0B585B0022803DC49
:101A80001C2000F0D9FA4EE001230D681D4205D05C
:101A90004E681E4202D08A681A4201D11120F0E736
:101AA00000236D10013D0093032805D0CB68043B53
:101AB00059424B41DBB20093032D36D80C20531012
:101AC00076100193F3B202936B466843184C1B796E
:101AD00020180393FFF76AFF6B1E164F022B02D8E4
:101AE000154A9B009F58FF2002223040390008F021
:101AF000F9FD009B002B06D0FF230198022218401D
:101B0000390008F0EFFD0C235D436B4600201B7A83
:101B100060516419A3716B461B7B2071E3716B46A6
:101B20001B786071237205B0F0BD3520A9E7C0466F
:101B3000A4020020D51B0000283B010070B5040062
:101B4000807909F0EDF8451EA841C5B2E07909F0A9
:101B5000E7F8431E9841237AC0B2002B19D02379AD
:101B6000DBB2AB4209D023680122854203D09B1827
:101B70002360257170BD5242F9E762798242F9D043
:101B800022680121834200D002395218226060711C
:101B9000F0E723680122854202D09B182360E9E721
:101BA0005242FAE710B502482430FFF7C7FF10BDD4
:101BB000A402002010B502481830FFF7BFFF10BD87
:101BC000A402002010B502480C30FFF7B7FF10BD8B
:101BD000A402002010B50248FFF7B0FF10BDC046B8
:101BE000A402002010B5034B052203490F2005F085
:101BF00087FE10BD403B0100683B01000122034B02
:101C00005242DA805A82DA835A857047A402002051
:101C100000207047042070470120704710B5002055
:101C200003F018FC10BD0020704700207047002012
:101C30007047002070470020704700207047002048
:101C40007047002070470020704700207047012037
:101C50007047000010B5034B0F220349072005F021
:101C60004FFE10BD9C3B0100143C0100704700205A
:101C70007047002070470020704700207047002008
:101C80007047002070470020704700207047000018
:101C900010B5034B082203490C2005F031FE10BD9E
:101CA000A83C0100E83C01007047704770470020E5
:101CB0007047000070B5074C060020000D0008F0CA
:101CC000A3FB0200A84200DD2A003100200008F03A
:101CD00040FB70BD841A002010B5521A411802480A
:101CE00008F094FA10BDC046841A002010B5054CC7
:101CF000200008F057FBE1212000490208F03DFBDD
:101D000010BDC046841A00200378002B03D05AB2BD
:101D1000002A01DB013070473F229343C03B594208
:101D20004B41C01803789343802BF4D10130F9E77D
:101D3000F8B50127060014000800394227D104290C
:101D40003FD90F230A681A40042A3AD13C4213D1E2
:101D5000042C11D922681340042B0DD103F04EF945
:101D60000500200003F04AF9010028000FF0DCFD17
:101D700000282EDB1FD127E0E30722D503F03EF930
:101D80000A2200210FF0A2FE0500601010E01740AB
:101D900015D1042A15D90F2312681340042B10D132
:101DA00020004D1003F02AF90A2239000FF08EFEB0
:101DB00085420EDB08DD002E09DC00200CE04D1012
:101DC000E3E70F22054B1A700136022EF5D80420E6
:101DD00002E0042076173040F8BDC0460003002022
:101DE00010B50124044002D04410200010BD042886
:101DF00010D90F2302681340042B07D103F0FEF81B
:101E000021000A220FF062FE0400EEE7032B01D14D
:101E10000430F5E70D22014B1A70E6E700030020BD
:101E2000F7B5060005F078FD051E11D130000FF062
:101E300085FD0190294BEC00E4182379032B08D091
:101E40000135FF2DF6D11B220120254B40421A708F
:101E5000FEBDE8B2019A310005F0E8FD002839D155
:101E6000226851688842EBD08300D3189B68013008
:101E7000F02BF7D101238000083012181A42DFD16D
:101E8000042ADDD90F21136819400429D8D11B0970
:101E900098B201230130800010181842D0D10428D4
:101EA000CED90F2203681340042BC9D103F0A6F842
:101EB00003270400092120000FF028FD0028BFD0CF
:101EC000013F441C002FF5D1310020000FF062FDCE
:101ED0008442B5D103482843BAE7C04634250020E0
:101EE0000003002000FFFFFF012210B5024018D1BF
:101EF000042802D903681A0992B201230B4012D1B7
:101F0000042902D90B681B099BB20024934206D115
:101F100004309B000431C318984206D301242000EA
:101F200010BD0022E9E70023EFE704780A78002CCF
:101F300001D1002AF2D0013001319442ECD00024CA
:101F4000EDE70000F7B50700009101933049314BF0
:101F5000002A02D002220A70013A00261A601B6889
:101F6000CE54BE4200DBF7BD009AB300D058294BD7
:101F7000274D1C68FA239B0065191C1B012318427E
:101F800006D0254A4310210028000FF05FFC09E02D
:101F9000224A002802D004281BD1214A210028000F
:101FA0000FF054FC1A4C20000FF0C8FC194A019B9A
:101FB0001060002B0BD07B1EB34208DD194B9842FA
:101FC00005D8431C1360202222540022E25401361B
:101FD000C7E7042819D90F2301680B40042B04D14B
:101FE00003F00CF8104A0300CDE7092B03D1436836
:101FF0000E4A5B10C7E7032B08D10A0992B2490FBA
:1020000092000B40D31A0A4ABDE70123094ABAE7F6
:1020100001030020EC060020F8400100443F0100CD
:102020004A3F0100E7030000905001004F3F0100CC
:102030005E3F0100693F0100014B187000207047AE
:1020400000030020024B1878431E98417047C04699
:1020500000030020FF22024B1860024B1A707047E9
:10206000F406002000030020002310B51A00FFF73B
:1020700069FF034B0348196806F044FA002010BDBD
:10208000EC0600200103002010B502F03DFD014BDD
:10209000186010BDF806002070B502F067FD094C0D
:1020A0000100251D1F2228000FF060FC28000FF002
:1020B00045FC042304308008000118432060200000
:1020C00070BDC046DC020020C368F0B59F00836885
:1020D0008BB0DF19030018330293036902999A0049
:1020E000029B01909C18436903939B00CB180693B5
:1020F000D24B1B78002B66D192103B6802617F2285
:102100001D12CF4913409B005B58043703929F4632
:10211000019B9B680393FA1A019B92109B78120211
:102120001A43019B587805F08FFE0023F021019A95
:10213000C44813700268C44D013A5143495D994245
:1021400000D10260BD4A1370019B019A9B68039302
:10215000FB1A9B10D360029BE41AA4101461069B27
:10216000029A9B1A019A9B1053610BB0F0BD019B20
:10217000587805F061FE0023019AB2491370F022ED
:102180000B68B148013B5A43125C002ADCD10B605A
:10219000DAE7AA4B1B78002B15D1029A0199A21AF3
:1021A00092103B680A61039A1D121340A44A9B00D7
:1021B0009B580437ABE7029B211DCA1A9F4BD82AB4
:1021C00018DD1A221A709D4B1978FF29A0D1002220
:1021D0009E4D1A702B689342B6DD0123019A13704D
:1021E00002F088FCFA232A689B0053431818019BCD
:1021F0005860A9E720001B780C000560002BE2D195
:10220000019992103B680A61039A1D1213408C4A8F
:102210009B009B5804377AE7029A231D9A1AD82A02
:1022200003DD1A22854B1A70CDE720001C003B68A5
:10223000391D0360814B1B78002B01D00F00C2E7D2
:10224000019992107B680A61039A1D1213407C4A1F
:102250009B009B5808375AE7029B201DC21A774BF8
:10226000D82A02DD1A221A70ADE72100AD001B78D2
:102270007D1904000D60002BA5D1019992103B68D7
:102280000A61039A1D1213406D4A9B009B58043744
:102290003DE7029A231D9A1AD82A03DD1A22674BBA
:1022A0001A7090E721001C00694BAD00EB580B60E1
:1022B000624B1B78002B86D1019992103B680A6112
:1022C000039A1D1213405E4A9B009B5804371EE779
:1022D000043C5F4B2268AD00EA50584B1B78002B42
:1022E00000D070E7029A0199A21A92103B680A6125
:1022F000039A1D121340524A9B009B58043706E76D
:10230000534BAE00F058FFF76BFD4C4B05001B78AC
:10231000002B09D1043C2068FFF762FD451901201C
:102320006D004B4B0543F550444B1B78002B00D000
:1023300049E7029A0199A21A92103B680A61039A2E
:102340001D1213403E4A9B009B580437DFE6029B58
:10235000211DCA1A394BD82A02DD1A221A7032E717
:102360000298069D0122A84202D22A000C3A126865
:1023700020001B780C000260002B00D023E7029A9B
:102380003B688A1A019992100A61039A1D12134040
:102390002B4A9B009B580437B9E6029A231D9A1AD0
:1023A0002649D82A02DD1A230B700CE70298069EF4
:1023B000B0421BD231000C390868264940106D1814
:1023C0002D1AAD00A95921601C001C4B1B78002B55
:1023D00000D0F8E6019992103B680A61039A1D1239
:1023E0001340174A9B009B58043790E6182008704A
:1023F0000021E8E7029B069A93422DD213000C3B82
:102400001868144B043CED18130040102D1A226874
:10241000AD00EA50094B1B78002B00D0D3E6029A9E
:102420000199A21A92103B680A61039A1D12134087
:10243000034A9B009B58043769E6C046000300200E
:10244000443D0100F0060020D41B0020F4060020CB
:102450002C2D0020FDFFFF3F1822D84B1A70D9E722
:10246000029B069A93422DD2D54B043CEE181500E0
:102470000C3D2B685B10F31A9B009858FFF7B0FCDB
:1024800004902068FFF7ACFC2D68049B6D10751B51
:102490001E1801207600069BAD000643EE50C74B88
:1024A0001B78002B00D08EE6029A0199A21A921096
:1024B0003B680A61039A1D121340C24A9B009B5855
:1024C000043724E61822BD4B1A70E8E7029B211D51
:1024D000CA1ABA4BD82A02DD1A221A7073E62600ED
:1024E0000C000699AD0069581B783160002B00D0B4
:1024F00069E6019992103B680A61039A1D12134024
:10250000B04A9B009B58043701E6043C069B2268B6
:10251000AD00EA50A94B1B78002B00D053E6029A7D
:102520000199A21A92103B680A61039A1D12134086
:10253000A44A9B009B580437E9E5069BAD005D1952
:102540002B68043C20685E10FFF74AFC3618012017
:102550009A4B76001B7806432E60002B00D032E6A3
:10256000029A0199A21A92103B680A61039A1D12FD
:102570001340944A9B009B580437C8E5AD00029B6A
:10258000641BE61A8D4DA3420FD82B78002B00D088
:1025900019E6019AB6103B681661039A1D121340A2
:1025A000884A9B009B580437B1E5874802F016FD26
:1025B0002B78002B00D006E6019AB6103B68166116
:1025C000039A1D1213407F4A9B009B5804379EE5D7
:1025D000AB00FF18002D00DAB6E5784B1B78002B16
:1025E00000D0F0E5029A0199A21A92103B680A61A4
:1025F000039A1D121340734A9B009B58043786E5CB
:10260000043C2368042B04D1AB00FF18002D00DA32
:102610009AE56A4B1B78002B00D0D4E5029A019909
:10262000A21A92103B680A61039A1D121340654A70
:102630009B009B5804376AE5043C2368042B04D0B4
:10264000AB00FF18002D00DA7EE55C4B1B78002BF9
:1026500000D0B8E5029A0199A21A92103B680A616B
:10266000039A1D121340574A9B009B5804374EE5AE
:10267000261F3068C3070AD540100138002809DB3F
:1026800001234000AD0018437F1930605CE5FFF77F
:10269000A7FBF2E7494B1B78002B01D0340092E5F1
:1026A000029A0199B21A92103B680A61039A1D12AC
:1026B0001340444A9B009B583400043727E5029A94
:1026C000069B9B1A9B10099323000C3308939B1ABB
:1026D0009C46D82B02DD1A230B7074E526006C0093
:1026E000FF2501226D0025401543019B35609B6845
:1026F000019C0693FB1AA4789B101B022343934072
:1027000013437360099B097893401A43B2606A4689
:10271000019B127C089C9A70079B019A1B5893603E
:1027200062469210002903D008331F0006944AE540
:102730001F0001999B680A61039A1D121340214AE8
:102740009B000C379B580694E1E4231F1D68069AF2
:10275000029B93423AD10A20EB0711D4042D18D9D9
:102760000F232A681340042B16D1280002F046FCE0
:102770000FF0E4F8C8239B00984200D918000630F7
:10278000643005F087F900280FD1043F029B0693BF
:10279000DAE40720042DF3D02800431E9841FA23E1
:1027A0004042FF3318400730EAE7019B2900587880
:1027B00005F05CFB0023019A1370E7E7000300209B
:1027C000FDFFFF3F443D01007B3F0100069B069A51
:1027D0000C3B1B6801995B109B00D31A0C3B1D60DE
:1027E0001C1D1300083B1B685A108A70D2B2CD49D9
:1027F000D2005B0057589B0A019A9B009760FF1814
:10280000069B029A043B1B685B109B00D31806933F
:10281000C54BA21A1B789210002B00D0D3E401996B
:102820003B680A61039A1D121340C04A9B009B58E3
:1028300004376CE4231F1868FFF7D2FAAD000600D6
:10284000641B1E2831DC002812DCB74B1B78002BE0
:1028500000D0B8E4029A0199A21A92103B680A616A
:10286000039A1D121340B14A9B009B5804374EE453
:1028700002F040F9033E361802F03CF9AC4B801BE5
:102880009842F9D8A84B1B78002B00D09BE4029A01
:102890000199A21A92103B680A61039A1D12134013
:1028A000A24A9B009B58043731E40123019A13701C
:1028B00002F020F9019B073886195E6044E4231F6B
:1028C0001868FFF78DFAAD000600641B002813DCC2
:1028D000954B1B78002B00D075E4029A0199A21A3F
:1028E00092103B680A61039A1D1213408F4A9B00A5
:1028F0009B580437FFF70BFC8E4B984203DD1D22DB
:10290000894B1A705FE40123019A137002F0F2F808
:10291000FA239B005E43073E301868E4AB00E41ADC
:10292000002328001A002100FFF70CFB824E834D84
:102930003168280002F09AFD814B31681860280048
:1029400005F08CFC3168280005F0DCFD764B1B7827
:10295000002B00D037E4029A0199A21A92103B682A
:102960000A61039A1D121340704A9B009B5804375A
:10297000FFF7CDFB6C4BAD001B78641B002B00D028
:1029800021E4029A0199A21A92103B680A61039A03
:102990001D121340654A9B009B580437FFF7B7FB95
:1029A000019805F0DBF8604B1B78002B00D00AE49F
:1029B000029A0199A21A92103B680A61039A1D12A9
:1029C00013405A4A9B009B580437FFF7A0FB231F74
:1029D0001E68002E46D1083B1868013606401ED0FE
:1029E0004610220001237100083A0B431360002EA9
:1029F00000DC95E0012372001A43211F0A602200C7
:102A0000083A1068043A1841861B106818422CD006
:102A1000F6189E40AD001E43069BEE5032E004289F
:102A20001BD90F2203681A40092A02D14668761082
:102A3000D7E7042A08D102F0E1FA0378002BD0D0BE
:102A4000FFF762F90136F8E7032A06D1180980B2C8
:102A50005E0F80001640861BC3E71922324B1A70A6
:102A6000FFF7B1FB7610013EC1E7042853D90F22CE
:102A700001680A40092A1AD10236B6003358069A6C
:102A8000AD00AB50284B1B78002B01D0FFF79BFB10
:102A9000029A0199A21A92103B680A61039A1D12C8
:102AA0001340224A9B009B580437FFF730FB042A4F
:102AB0002AD1069BAD005B19079302F09FFA0136FD
:102AC0000490012E10DC0498FFF71EF9049BC61A2F
:102AD000300002F0BFFC051E0ED002F08FFA32006B
:102AE00004990DF0E3FF07E0049B013E1D78002DE3
:102AF00005D112220C4B1A70079B1D60C2E7049887
:102B0000FFF702F90490DCE7032A04D1861936792D
:102B1000AD0076007FE71922034B1A70FFF753FBD5
:102B20000437AFE73425002000030020443D0100B6
:102B30007F96980080EE3600EC060020010300200E
:102B400004000020AB00029AE3189B1AD82B18DC73
:102B500001226B1E002D19DCCF4B1B78002B01D0FE
:102B6000FFF731FB029A0199A21A92103B680A61A1
:102B7000039A1D121340C94A9B009B580437FFF764
:102B8000C6FA1A22C44B1A70FFF71DFB22601D0003
:102B90000434DEE7029A231D9B1ABF4ED82B03DDB7
:102BA0001A233370FFF70FFB029B069AAD00934286
:102BB0002FD2231F1868FFF713F9011E26DD069B8D
:102BC0000C3B1A685210824220DB9007801AB44BEB
:102BD0004018C018069B8000C258631B1A60AE4B99
:102BE000641B1B780434002B01D0FFF7ECFA029A27
:102BF0000199A21A92103B680A61039A1D121340B0
:102C0000A64A9B009B580437FFF781FA20233370B4
:102C1000E5E71823FBE7A34BAD001A68631B1C0014
:102C20001A609D4B04341B78002B01D0FFF7CBFAC0
:102C3000029A0199A21A92103B680A61039A1D1226
:102C40001340964A9B009B580437FFF760FA221FF7
:102C50001368042B02D12200AD007F198E4B1B7824
:102C6000002B02D01400FFF7AEFA02990198511A16
:102C700089103B68016103991D120B4087499B0035
:102C80005B5814000437FFF742FA043C2368042B16
:102C900004D00023AD0023607F1904347E4B1B78E1
:102CA000002B01D0FFF78FFA029A0199A21A921015
:102CB0003B680A61039A1D121340784A9B009B5897
:102CC0000437FFF724FAAB009C46E61A002D1CDC03
:102CD0001C22714B1A70002333606346E41A6E4B5A
:102CE00004341B78002B01D0FFF76DFA029A01998A
:102CF000A21A92103B680A61039A1D121340674A98
:102D00009B009B580437FFF702FA002033685A10E3
:102D10008300F15801230B4003D10D215E4A11704D
:102D2000DAE749108A4200DD0A0001308542EFDC13
:102D3000012352001343CFE7AB009C46E61A002D57
:102D40001CDC1C22544B1A70002333606346E41AC7
:102D5000514B04341B78002B01D0FFF734FA029A50
:102D60000199A21A92103B680A61039A1D1213403E
:102D70004A4A9B009B580437FFF7C9F90020336883
:102D80005A108300F15801230B4003D10D21424A10
:102D90001170DAE749108A4200DA0A0001308542F0
:102DA000EFDC012352001343CFE723000122083B4D
:102DB0001968AE00114222D0231F1B6813421ED097
:102DC000114113410022994200DA0432A31B1A6018
:102DD000314BA41B1B780434002B01D0FFF7F3F90F
:102DE000029A0199A21A92103B680A61039A1D1275
:102DF00013402A4A9B009B580437FFF788F90220AA
:102E0000231F1A684042FEF793FFA51B2860DFE7E7
:102E10002300083B19680123AE00194223D0221F6A
:102E200012681A421FD019415010CB0FD217884296
:102E30005341A21B9B001360174BA41B1B78043447
:102E4000002B01D0FFF7BFF9029A0199A21A921044
:102E50003B680A61039A1D121340104A9B009B585D
:102E60000437FFF754F90120231F1A684042FEF788
:102E70005FFFA51B2860DFE72300083B1868231FBE
:102E80001968AE00A61B0423814202D004280BD887
:102E9000002333601FE0C04600030020443D0100D2
:102EA000FCFFFF3F0400002001231842F0D10F2354
:102EB00002681A40042AEBD1033A1142E8D10429EE
:102EC000E6D90A681340042BE2D1FFF70DF8431E40
:102ED000984180003060DC4BAD001B78641B0434EB
:102EE000002B01D0FFF76FF9029A0199A21A9210F4
:102EF0003B680A61039A1D121340D44A9B009B58F9
:102F00000437FFF704F92300083B1868231F1968EA
:102F1000AE00A61B0023814202D0042802D804235D
:102F2000336016E001231842F9D10F2302681A40DA
:102F3000042AF4D1033A1142F1D10429EFD90A68E5
:102F40001340042BEBD1FEF7CFFF434258418000E2
:102F50003060BD4BAD001B78641B0434002B01D0E6
:102F6000FFF731F9029A0199A21A92103B680A619F
:102F7000039A1D121340B54A9B009B580437FFF774
:102F8000C6F823000122083B1968AE00114223D085
:102F9000231F1B6813421FD05B104A10D80FC9179C
:102FA0009A424141A31B89001960A74BA41B1B78BF
:102FB0000434002B01D0FFF706F9029A0199A21AF6
:102FC00092103B680A61039A1D1213409F4A9B00AE
:102FD0009B580437FFF79BF8231F1A680120FEF760
:102FE000A7FEA51B2860E0E723000122083B196823
:102FF000AE00114222D0231F1B6813421ED0114184
:1030000013410022994200DD0432A31B1A608E4B4B
:10301000A41B1B780434002B01D0FFF7D4F8029ACC
:103020000199A21A92103B680A61039A1D1213407B
:10303000864A9B009B580437FFF769F8231F1A68DC
:103040000220FEF775FEA51B2860E0E7231F1B6822
:10305000AD00043B5A1E9341621B14009B00136099
:10306000794B04341B78002B01D0FFF7ACF8029A9F
:103070000199A21A92103B680A61039A1D1213402B
:10308000724A9B009B580437FFF741F82300083B26
:103090001868FEF7A5FE231F06001868FEF7A0FEBD
:1030A00036180120AD00631B1C00760006431E602D
:1030B000654B04341B78002B01D0FFF784F8029A8B
:1030C0000199A21A92103B680A61039A1D121340DB
:1030D0005E4A9B009B580437FFF719F82300083B12
:1030E0001868FEF77DFE231F06001868FEF778FEBD
:1030F000361A0120AD00631B1C00760006431E60DB
:10310000514B04341B78002B01D0FFF75CF8029A76
:103110000199A21A92103B680A61039A1D1213408A
:103120004A4A9B009B580437FEF7F1FF2300083BF7
:103130001868FEF755FE231F06001868FEF750FEBC
:1031400046430120AD00631B1C00760006431E6051
:103150003D4B04341B78002B01D0FFF734F8029A62
:103160000199A21A92103B680A61039A1D1213403A
:10317000364A9B009B580437FEF7C9FF231F186887
:10318000FEF72EFE061E1CD11F232F4A1370AD0022
:10319000631B1C001E602C4B04341B78002B01D0D9
:1031A000FFF711F8029A0199A21A92103B680A617E
:1031B000039A1D121340254A9B009B580437FEF7C3
:1031C000A6FF2300083B1868FEF70AFE31000AF04C
:1031D0006DFD012640000643D9E7AD00661B30684F
:1031E000FEF7FEFD07907068FEF7FAFD00281AD181
:1031F0001F22154B1A70144B641B1B78306004346B
:10320000002B01D0FEF7DFFF029A0199A21A92105B
:103210003B680A61039A1D1213400C4A9B009B589D
:103220000437FEF774FFC21783185340190007983C
:1032300004930AF021FE002901DA049BC918012039
:1032400049000843D7E7C04600030020443D010081
:10325000231F1868FEF7C4FDC11743180120AD00F5
:10326000621B14004B405B0003431360EE4B0434BD
:103270001B78002B01D0FEF7A6FF029A0199A21A33
:1032800092103B680A61039A1D121340E74A9B00A3
:103290009B580437FEF73BFFAB000893E31A0793F4
:1032A000012D32D11868FEF79BFDC617AE4304907E
:1032B0000136049B9E4201DC04961E00049B0136ED
:1032C000F61A0EF07FFA31000AF0D6FD049B079A39
:1032D000CB1801215B000B431360089BE41AD24B0F
:1032E00004341B78002B01D0FEF76DFF029A019980
:1032F000A21A92103B680A61039A1D121340CB4A2E
:103300009B009B580437FEF702FF022D0AD1079B52
:103310001868FEF765FD079B06005868FEF760FD1C
:103320000490C6E7012364260493C7E7AB00E61ABE
:1033300031002800049302F09BFA049B3060E41AE9
:10334000B94B04341B78002B01D0FEF73CFF029AE6
:103350000199A21A92103B680A61039A1D12134048
:10336000B24A9B009B580437FEF7D1FE2300083B6E
:103370001868FEF735FD231F06001868FEF730FDBC
:1033800006400120AD00631B1C00760006431E6052
:10339000A54B04341B78002B01D0FEF714FF029AD2
:1033A0000199A21A92103B680A61039A1D121340F8
:1033B0009E4A9B009B580437FEF7A9FE2300083B5A
:1033C0001868FEF70DFD231F06001868FEF708FDBC
:1033D00006430120AD00631B1C00760006431E60FF
:1033E000914B04341B78002B01D0FEF7ECFE029ABF
:1033F0000199A21A92103B680A61039A1D121340A8
:103400008A4A9B009B580437FEF781FE2300083B45
:103410001868FEF7E5FC231F06001868FEF7E0FCBD
:1034200046400120AD00631B1C00760006431E6071
:103430007D4B04341B78002B01D0FEF7C4FE029AAA
:103440000199A21A92103B680A61039A1D12134057
:10345000764A9B009B580437FEF759FE231F1868D5
:10346000FEF7BEFCC3430120AD00621B14005B00ED
:10347000034313606C4B04341B78002B01D0FEF720
:10348000A2FE029A0199A21A92103B680A61039A5D
:103490001D121340654A9B009B580437FEF737FE08
:1034A0002300083B1868FEF79BFC231F06001868E2
:1034B000FEF796FC86400122AD00631B1C007600DF
:1034C00016431E60584B04341B78002B01D0FEF7C6
:1034D0007AFE029A0199A21A92103B680A61039A35
:1034E0001D121340514A9B009B580437FEF70FFEF4
:1034F0002300083B1868FEF773FC231F06001868BA
:10350000FEF76EFC06410122AD00631B1C00760035
:1035100016431E60444B04341B78002B01D0FEF789
:1035200052FE029A0199A21A92103B680A61039A0C
:103530001D1213403D4A9B009B580437FEF7E7FDE0
:1035400023000C3B1868FEF74BFC2300083B0600E9
:103550001868FEF745FCF1170200C31730000AF0A7
:1035600021FD231F049005911868FEF739FC020025
:10357000049805990AF086FC43000120AE00A51BC3
:103580002C001843284B28601B780434002B01D0F2
:10359000FEF719FE029A0199A21A92103B680A617D
:1035A000039A1D121340214A9B009B580437FEF7D3
:1035B000AEFDAB00E61A310028000493FDF7F6FFDC
:1035C000049B3060E41A184B04341B78002B01D0A4
:1035D000FEF7F9FD029A0199A21A92103B680A615E
:1035E000039A1D121340114A9B009B580437FEF7A3
:1035F0008EFDAB00E41A21002800FDF7F3FF0A4B13
:103600001B78002B01D0FEF7DEFD029A0199A21A69
:1036100092103B680A61039A1D121340034A9B00F3
:103620009B580437FEF773FD00030020443D010062
:10363000AB00E61A310028000493FEF713F8049B50
:103640003060E41AE74B04341B78002B01D0FEF7FE
:10365000BAFD029A0199A21A92103B680A61039A74
:103660001D121340E04A9B009B580437FEF74FFDA4
:10367000AB00E41A21002800FEF794F8D94B1B7820
:10368000002B01D0FEF79FFD029A0199A21A921019
:103690003B680A61039A1D121340D34A9B009B5852
:1036A0000437FEF734FDAB00E61A3100280004931E
:1036B000FEF700F9049B3060E41ACA4B04341B780F
:1036C000002B01D0FEF77FFD029A0199A21A9210F9
:1036D0003B680A61039A1D121340C34A9B009B5822
:1036E0000437FEF714FD231F186801F087FC220041
:1036F000083A12680300AD00D1072ED4042A0CD971
:1037000010680F221040013808280FD80AF026FA56
:1037100005252B270E0E0E0E2900B44918000EF0B9
:1037200003F943425841631B80001860AD4B641B92
:103730001B780434002B01D0FEF745FD029A019955
:10374000A21A92103B680A61039A1D121340A64AFE
:103750009B009B580437FEF7DAFCA549DEE7A54934
:10376000DCE7A549DAE7A549D8E7029B251DEB1A56
:103770000493D82B04DD1A229A4B1A70FEF723FD0E
:1037800001F0D0F9FA22002392000AF0EBFB9C4BE7
:1037900040001840012326001843924B2C001B7850
:1037A0003060002B01D0FEF70EFD049A01999210B3
:1037B0003B680A61039A1D1213408B4A9B009B5879
:1037C0000437FEF7A4FC029B251DEE1AD82E04DD5B
:1037D0001A22844B1A70FEF7F6FC01F08BF9884A26
:1037E0004000104001222300104318607D4B2C0044
:1037F0001B78002B01D0FEF7E6FC019AB6103B685F
:103800001661039A1D121340774A9B009B58043798
:10381000FEF77DFC029A231D9B1A724DD82B03DD07
:103820001A232B70FEF7CFFC01F06EF9754B1A6866
:10383000831A904201D2744A9B18012022005B0037
:10384000034313602B780434002B01D0FEF7BBFC3C
:10385000029A0199A21A92103B680A61039A1D12FA
:103860001340614A9B009B580437FEF750FCFEF75B
:103870000BFC5C4BAD001B78641B002B01D0FEF7EA
:10388000A2FC029A0199A21A92103B680A61039A5B
:103890001D121340544A9B009B580437FEF737FC17
:1038A00004F0A4FBAE00002815D14E4BA41B1B78DE
:1038B000002B01D0FEF787FC029A0199A21A921000
:1038C0003B680A61039A1D121340474A9B009B58AC
:1038D0000437FEF71CFC0123A61B28001A00310048
:1038E000FEF730FB494D2868643004F0D3F8002817
:1038F00002D1043FFEF728FC019B29685A7844480E
:1039000004F0BBFA0123019A3400137001F0F2F8BD
:10391000404B2A681B68063253431818019B5860B5
:10392000FEF712FC04F062FBAE00002815D12D4B0F
:10393000A41B1B78002B01D0FEF745FC029A0199CD
:10394000A21A92103B680A61039A1D121340264A7C
:103950009B009B580437FEF7DAFBA61B28000123C7
:1039600000223100FEF7EEFA284D2868643004F09A
:1039700091F80028BDD0264804F042FAC2E7AD0015
:10398000661BFEF789FB3400164B30601B7804344D
:10399000002B01D0FEF717FC029A0199A21A92108F
:1039A0003B680A61039A1D1213400F4A9B009B5803
:1039B0000437FEF7ACFB0B4BAD001B78641B002BF0
:1039C00001D0FEF700FC029A0199A21A92103B68FE
:1039D0000A61039A1D121340034A9B009B58043747
:1039E000FEF795FB00030020443D01005F3A010013
:1039F000673A01006E3A0100753A01007A3A010017
:103A0000FEFFFF7FF806002037894100EC0600200A
:103A10000103002000000020F44EAA00012D1ADC52
:103A20001C2300213370A31A19603378A41A0434BC
:103A3000002B01D0FEF7C7FB029A0199A21A92103F
:103A40003B680A61039A1D121340E94A9B009B5888
:103A50000437FEF75CFB029B069DA01A211FAB42B8
:103A600002D30B680360E0E72300083B1B680D6886
:103A70005B10002B0BDD06990C39096849108B424D
:103A800005DC5B1ADB495B1806999B005D580560F5
:103A9000CBE7AD00661B300001F095F83400D34B46
:103AA00030601B780434002B01D0FEF78CFB029AA7
:103AB0000199A21A92103B680A61039A1D121340E1
:103AC000CB4A9B009B580437FEF721FBAD00661BD9
:103AD000300001F07AF83400C44B30601B780434B5
:103AE000002B01D0FEF76FFB029A0199A21A9210E7
:103AF0003B680A61039A1D121340BD4A9B009B5804
:103B00000437FEF704FBAB00E61A310028000493EB
:103B100000F05EFE049B3060E41AB44B04341B7862
:103B2000002B01D0FEF74FFB029A0199A21A9210C6
:103B30003B680A61039A1D121340AD4A9B009B58D3
:103B40000437FEF7E4FAAD00641B200001F040F8F2
:103B5000A64B1B78002B01D0FEF735FB029A01998A
:103B6000A21A92103B680A61039A1D121340A04AE0
:103B70009B009B580437FEF7CAFAAB00E61A3100E7
:103B80002800049300F054FE049B3060E41A974B25
:103B900004341B78002B01D0FEF715FB029A019923
:103BA000A21A92103B680A61039A1D121340904AB0
:103BB0009B009B580437FEF7AAFAAD00641B200057
:103BC00001F060F8894B1B78002B01D0FEF7FBFA5F
:103BD000029A0199A21A92103B680A61039A1D1277
:103BE0001340834A9B009B580437FEF790FA01214B
:103BF000280001F021F87D4B1B78002B01D0FEF747
:103C0000E2FA029A0199A21A92103B680A61039A99
:103C10001D121340764A9B009B580437FEF777FA33
:103C20000021280001F008F8704B1B78002B01D010
:103C3000FEF7C9FA029A0199A21A92103B680A612A
:103C4000039A1D1213406A4A9B009B580437FEF7E3
:103C50005EFAAD00661B300001F042F83400634BA1
:103C600030601B780434002B01D0FEF7ACFA029AC6
:103C70000199A21A92103B680A61039A1D1213401F
:103C80005B4A9B009B580437FEF741FAAD00661B68
:103C9000300001F039F83400544B30601B780434A4
:103CA000002B01D0FEF78FFA029A0199A21A921006
:103CB0003B680A61039A1D1213404D4A9B009B58B2
:103CC0000437FEF724FAAD00641B200000F0F0FF7B
:103CD000464B1B78002B01D0FEF775FA029A01992A
:103CE000A21A92103B680A61039A1D121340404ABF
:103CF0009B009B580437FEF70AFAAD00641B2000B6
:103D000005F0FEF8394B1B78002B01D0FEF75BFA6B
:103D1000029A0199A21A92103B680A61039A1D1235
:103D20001340334A9B009B580437FEF7F0F9AD006F
:103D3000661B300005F0CCF934002C4B30601B784A
:103D40000434002B01D0FEF73EFA029A0199A21A20
:103D500092103B680A61039A1D121340244A9B008B
:103D60009B580437FEF7D3F9AD00641B200005F023
:103D70006DF81E4B1B78002B01D0FEF724FA029A37
:103D80000199A21A92103B680A61039A1D1213400E
:103D9000174A9B009B580437FEF7B9F9AD00661B24
:103DA000300005F06DF83400104B30601B7804349F
:103DB000002B01D0FEF707FA029A0199A21A92107D
:103DC0003B680A61039A1D121340094A9B009B58E5
:103DD0000437FEF79CF9029B251DEB1A0493D82BA0
:103DE0000ADD1A22014B1A70FEF7EDF900030020DC
:103DF000443D0100FCFFFF3F00F094FE0023F34A26
:103E00000AF0B0F8F24B4000184001232600184396
:103E1000F04B2C001B783060002B01D0FEF7D3F95B
:103E2000049A019992103B680A61039A1D1213408B
:103E3000E94A9B009B580437FEF769F9AB00E61A84
:103E4000079333685B100493012D25DD7068C30769
:103E500022D54010049BC01A02D58023DB05C01870
:103E6000012340001843079B3060E41AD94B043407
:103E70001B78002B01D0FEF7A6F9029A0199A21A2D
:103E800092103B680A61039A1D121340D24A9B00AC
:103E90009B580437FEF73BF900F044FEFA2200235A
:103EA00092000AF05FF880008008D3E7AB00E61AC2
:103EB000079333685B100493012D25DD7068C307F9
:103EC00022D54010049BC01A02D58023DB05C01800
:103ED000012340001843079B3060E41ABD4B0434B3
:103EE0001B78002B01D0FEF76EF9029A0199A21AF5
:103EF00092103B680A61039A1D121340B64A9B0058
:103F00009B580437FEF703F900F0F4FD80008008A9
:103F1000D8E7AB00E41A2100280002F015FBAD4BF6
:103F20001B78002B01D0FEF74EF9029A0199A21AD4
:103F300092103B680A61039A1D121340A64A9B0027
:103F40009B580437FEF7E3F8AB00E41A2100280081
:103F500002F000F99F4B1B78002B01D0FEF733F9DC
:103F6000029A0199A21A92103B680A61039A1D12E3
:103F70001340994A9B009B580437FEF7C8F8AB00E2
:103F8000E41A2100280002F097F9924B1B78002BCD
:103F900001D0FEF718F9029A0199A21A92103B6813
:103FA0000A61039A1D1213408B4A9B009B580437E9
:103FB000FEF7ADF8AB00E41A2100280002F0A4F9E6
:103FC000844B1B78002B01D0FEF7FDF8029A019973
:103FD000A21A92103B680A61039A1D1213407E4A8E
:103FE0009B009B580437FEF792F8AB00E61A3100AD
:103FF0002800049305F05AF9049B3060E41A754BCD
:1040000004341B78002B01D0FEF7DDF8029A0199E9
:10401000A21A92103B680A61039A1D1213406E4A5D
:104020009B009B580437FEF772F8AB00E61A31008C
:104030002800049305F042F9049B3060E41A654BB4
:1040400004341B78002B01D0FEF7BDF8029A0199C9
:10405000A21A92103B680A61039A1D1213405E4A2D
:104060009B009B580437FEF752F8AB00E61A31006C
:104070002800049305F02AF9049B3060E41A554B9C
:1040800004341B78002B01D0FEF79DF8029A0199A9
:10409000A21A92103B680A61039A1D1213404E4AFD
:1040A0009B009B580437FEF732F8AB00E61A31004C
:1040B0002800049304F0AAFC049B3060E41A454BEA
:1040C00004341B78002B01D0FEF77DF8029A019989
:1040D000A21A92103B680A61039A1D1213403E4ACD
:1040E0009B009B580437FEF712F8AB00E41A21003E
:1040F000280002F0A9F9374B1B78002B01D0FEF7FE
:1041000062F8029A0199A21A92103B680A61039A16
:104110001D121340304A9B009B580437FDF7F7FFF0
:10412000AB00E41A2100280002F016F9294B1B7895
:10413000002B01D0FEF747F8029A0199A21A9210BB
:104140003B680A61039A1D121340234A9B009B5847
:104150000437FDF7DCFFAB00E61A310028000493BA
:1041600002F076F8049B3060E41A1A4B04341B7892
:10417000002B01D0FEF727F8029A0199A21A92109B
:104180003B680A61039A1D121340134A9B009B5817
:104190000437FDF7BCFFAB00E41A2100280002F051
:1041A00005F80C4B1B78002B01D0FEF70CF8029A97
:1041B0000199A21A92103B680A61039A1D121340DA
:1041C000054A9B009B580437FDF7A1FF40420F00B2
:1041D000FEFFFF7F00030020443D0100E803C00D07
:1041E0008000381800F00AFFEEB20100B300039817
:1041F000E41A6D1423002840320003F033FF954B7E
:104200001B78002B01D0FDF7DEFF029A0199A21A5C
:1042100092103B680A61039A1D1213408E4A9B005C
:104220009B580437FDF773FFE803C00D8000EBB225
:104230003818079300F0E2FEEBB29B0001000398F0
:10424000E61A6D14049328403300079A03F00AFF1E
:10425000049B3060E41A7F4B04341B78002B01D0A0
:10426000FDF7B1FF029A0199A21A92103B680A6108
:10427000039A1D121340784A9B009B580437FDF7A0
:1042800046FF002D00DC8FE00122744B52421A6081
:10429000704B1A70231F1E681300012D43D12E424C
:1042A00008D1042E06D90F213368300019401300BD
:1042B000042948D0AA00A41A5A1C75D00020022D47
:1042C00011D101223240824248D1042E46D90F2119
:1042D00030680140092941D171684810C0B281009D
:1042E000914236D16418029A0199A21A92100A6179
:1042F000FF22190091435A4A914237D11D062D0CD5
:1043000005432B1204936B461B7C5648DB00079336
:10431000C3181B794F49032B01D1FEF7D0F90223B3
:104320000B70FDF750FF022DC4D12300083B186825
:104330001300C107BED40428BCD90F21036819405B
:1043400013000429B6D100F059FEFDF769FD030002
:10435000B0E7B518AD68A5500432C1E70B223D4B5C
:104360001A70002323600434FDF72DFF8600A61B7E
:104370003100984700223C4B341D1A60354B3060A9
:104380001B78934201D0FDF71EFF029A0199A21AF1
:1043900092103B680A61039A1D1213402E4A9B003B
:1043A0009B580437FDF7B3FE00232360294B221DE1
:1043B0001B78002B02D01400FDF705FF029901982D
:1043C000511A89103B68016103991D120B40224963
:1043D0009B005B5814000437FDF799FEAB00E41A0C
:1043E0002100280003F07CFE1A4B1B78002B01D023
:1043F000FDF7E9FE029A0199A21A92103B680A6140
:10440000039A1D121340144A9B009B580437FDF772
:104410007EFEAB00E61A31002800049303F060FE34
:10442000049B3060E41A0B4B04341B78002B01D042
:10443000FDF7C9FE029A0199A21A92103B680A611F
:10444000039A1D121340044A9B009B580437FDF742
:104450005EFEC04600030020443D0100F40600203B
:1044600000FFFFFF34250020180C00200023F7B5C3
:104470001C005D1E002B2BDA04F06EF85F2503F0A4
:104480002DFF02F077F800F05BFB0023180001938A
:104490001D4B019A1B6893420FDD0134A34200DCDF
:1044A0000024F0266643194FF35D002B27D0F61940
:1044B000022B13D13000FDF707FE154B1A68002AB6
:1044C00004D000221A60052D00DD05252B00D0E761
:1044D0000F231D42D9D104F02DF8D6E7012B0ED1C0
:1044E000002801D100F006FBF0226243BB185B6894
:1044F0000849C31A8B4202D80223BB54DAE7019B56
:1045000001330193C4E7C046F0060020D41B00200D
:10451000F40600207F96980080220B4B52001A6010
:104520000121A822A920094BD20019649A58C00081
:1045300005321A5006481A50C122C02092000003CA
:104540009850044B1970704700E100E00080004073
:104550004C0500004807002004207047F8B550C9FA
:10456000012322001A40101E2DD03340181E2AD0DD
:10457000641000201C2C26D81D4B761035009E425E
:1045800000DD1D001B4F3B5D012B05D001212000EC
:1045900006F092FB01233B55174B1B78002B01D1F2
:1045A000FFF7BAFF0023154A9E420DDCFF25144990
:1045B0001448D65CB44202D15E007052D554013327
:1045C000082BF6D10420F8BDD15C8C4203D10C4AF3
:1045D0005B009D52F6E70133082BF5D10023D15C37
:1045E000FF2901D1D454F2E70133082BF7D1E9E7D1
:1045F000881300002007002048070020200000202A
:104600000A000020DC05000070B530C9012322003B
:104610001A40101E1FD02B40181E1CD064101C2CDA
:1046200000D90024174E335D012B05D00121200055
:1046300006F042FB0123335569100800124A103876
:10464000124B904208D901220021524220001A60E8
:1046500006F050FB042070BD1C600D4809F026FBDD
:104660000C4B040018800C4B1B78002B01D1FFF77A
:1046700053FF0122094B9A64A922D2009958641869
:104680009C50E7E720070020908601001C000020D6
:1046900020A10700080000204807002000800040FB
:1046A000012370B50D681C00984200DD4C682A009B
:1046B0001A40101E0BD022001A40101E07D06D1099
:1046C000002D05DCA12200201E49D2008B5070BDB8
:1046D000641000201C2CFAD81B4E335D012B05D032
:1046E0000121200006F0E8FA01233355290017487C
:1046F00009F0DCFA0A21053009F0D8FA144BA400BD
:10470000E258144B12021343A2221349D2008B50D9
:10471000124C0C4B9C50124C1951012411495C5005
:10472000114B196900219950104A904200DD100088
:10473000A8228021D2009850012289005A500420DA
:104740001A60C4E700F001402007002000B4C40450
:1047500070550100030003000060004040A10040CC
:10476000140500000405000000A00040FFFF000049
:10477000030010B50120002B02DC1B30FDF75CFCB0
:1047800010BD000010B5C30706D4042806D90F23B6
:1047900002681340042B05D0002002E00428FBD15E
:1047A000022010BD00F02AFC0400010006480DF0B4
:1047B000BBF80028F4D0210004480DF0B5F800281B
:1047C000EAD10330EDE7C0462C4C0100943F0100D4
:1047D00070B501240B68234204D10D20FDF72CFC99
:1047E000200070BD5B100A2B1AD1053B0E4A9B00BE
:1047F0009C580025012803DD4868FFF7C3FF05002A
:104800000A4E335DAB4204D02900200006F054FA72
:104810003555200006F0FEF8012440000443DFE790
:10482000052BE3D9DCE7C046044001002007002047
:1048300070B501250C682C4204D10D20FDF7FCFB5E
:10484000280070BD64101C2C16D80026012803DD3A
:104850004868FFF797FF0600084D2B5DB34204D070
:104860003100200006F028FA2E55200006F058FAF4
:1048700003000420012BE4D00020E2E72007002001
:1048800010B50124044002D04410200010BD0428BB
:1048900010D90F2302681340042B07D100F0AEFBA0
:1048A00021000A220DF012F90400EEE7032B01D1DA
:1048B0000430F5E70D20FDF7BFFBE6E7F8B50C0087
:1048C000022803DC1C20FDF7B7FBF8BD0868FFF7E2
:1048D000D7FF06006068FFF7D3FF0500A068FFF769
:1048E000CFFF0100794809F0E1F9841E1C2D01D9A0
:1048F0000020EAE7764F7B5D012B05D001212800DF
:1049000006F0DAF901237B550021280006F0F2F9C0
:10491000002C0ED020000138C046C046C046C0461C
:10492000C046C046C046C046C046C046C046C04657
:10493000F1D1012731002800394006F0DBF9002CC5
:104940000ED020000138C046C046C046C046C04612
:10495000C046C046C046C046C046C046C046F1D16B
:1049600071103940280006F0C5F9002C0ED0200047
:104970000138C046C046C046C046C046C046C046D4
:10498000C046C046C046C046C046F1D10127B1105E
:104990003940280006F0AEF9002C0ED02000013876
:1049A000C046C046C046C046C046C046C046C046D7
:1049B000C046C046C046C046F1D1F110394028007B
:1049C00006F098F9002C0ED020000138C046C046F1
:1049D000C046C046C046C046C046C046C046C046A7
:1049E000C046C046F1D1012731113940280006F0F8
:1049F00081F9002C0ED020000138C046C046C046C8
:104A0000C046C046C046C046C046C046C046C04676
:104A1000C046F1D171113940280006F06BF9002C25
:104A20000ED020000138C046C046C046C046C04631
:104A3000C046C046C046C046C046C046C046F1D18A
:104A40000127B1113940280006F054F93900002C33
:104A50000ED020000138C046C046C046C046C04601
:104A6000C046C046C046C046C046C046C046F1D15A
:104A7000F6113140280006F03DF9002C0ED0200040
:104A80000138C046C046C046C046C046C046C046C3
:104A9000C046C046C046C046C046F1D101212800EC
:104AA00006F028F9002C00D122E720000138C0468A
:104AB000C046C046C046C046C046C046C046C046C6
:104AC000C046C046C046F1D112E7C04640420F0082
:104AD000200700200420704710B5002803DC1C20AC
:104AE000FDF7AAFA10BD0B680020DB07FAD40D30E1
:104AF000F6E700000122034B1A64A822D20098585E
:104B00007047C046008000400122054B10B51A6472
:104B1000A822FA21D2009858890009F03DF810BD6A
:104B2000008000400122044B1968044B1A64A8223B
:104B3000D20098587047C0464407002000800040CB
:104B40000122074B1A64A822D2009958054A13681B
:104B50008B4203D904480368013303601160704736
:104B600000800040400700204407002000487047B4
:104B70001C4001001D20704770B5054E0400335CD9
:104B80000D008B4202D006F097F8355570BDC04637
:104B90002007002070B50024074D635D013B022B08
:104BA00005D80021200006F087F800236355013462
:104BB0001D2CF1D170BDC046200700201C2801D952
:104BC0000120404270470D2070473B207047000095
:104BD000F8B5012704683C4202D045683D4203D144
:104BE0000D20FDF729FAF8BD64101C2CFBD80C4EE3
:104BF000335D012B04D03900200006F05DF83755F5
:104C000008496D108D4202DCE943C9172940200094
:104C100005F086FF335D012BE5D1034A1355E2E72A
:104C200020070020FF030000FC06002010B508004C
:104C3000FFF7CEFF002010BD70B505000C001C284A
:104C400014D80E4E335C012B04D0012106F034F849
:104C5000012373550A4B5B5D002B08D0611E8C410C
:104C600061428905890D280005F05AFF70BD2100B9
:104C700028004C1EA14106F03DF8F7E72007002070
:104C8000FC060020036810B5DA0703D40D20FDF7F9
:104C9000D3F910BD4168581004394A425141FFF719
:104CA000CBFFF6E710B50800FFF7ECFF002010BDC2
:104CB00037B569460A00064B30CB30C20368022084
:104CC000042B02D101F0F8FA37BD01F01DFBFBE720
:104CD0008C3F010010B50800FFF7EAFF002010BD6F
:104CE00010B5084C6379002B05D00021052005F094
:104CF000E3FF00236371052006F012F84342584198
:104D0000800010BD2007002010B5084CE37A002B6E
:104D100005D000210B2005F0CFFF0023E3720B200C
:104D200005F0FEFF43425841800010BD20070020DF
:104D3000A1230121034ADB00D1500021024A08339C
:104D4000D150704700F0014000600040F7B52F4D92
:104D50002F4EEB6C002B14D0A9240023E40037590C
:104D6000EB642C4B186800280BDB2B4B19784A425C
:104D70005141C9B2197005F0BDFF284B1B88DF19DE
:104D800037512B6D002B38D00021254B254FF4587F
:104D900029653A780193244D8A4206D02B68072B67
:104DA00003D8224AD05C05F0A5FF2B68204A0133C6
:104DB000134004D50822013B5242134301331B49DF
:104DC00000228C462B60082B18D06046C05C591C12
:104DD000FF2802D10B000122F5E7002A00D02B604A
:104DE000012105F087FF01233B702B68114A5B000E
:104DF0009B5A0C34E418019BF450F7BD01235B422D
:104E00002B6000233B700C4BF4E7C046FC80004055
:104E1000008000401C0000203E0700200800002009
:104E20004C0500003D0700201C070020200000204A
:104E3000070000800A0000205C46000030B5002317
:104E4000FF25074C074A084859001D550133885271
:104E5000082BF9D10023054A1370054A136030BDB1
:104E6000200000200A000020DC0500003D07002093
:104E70001C0700200122024B52421A607047C046B4
:104E80001C00002010B5034B0D220349032002F043
:104E900037FD10BD9C3F01009C4B0100E12170B526
:104EA00049021B4805F069FA002401220320194B2E
:104EB00019491A615C500431585080180831585013
:104EC0001A60063005F0A0FDFF21144AA1540134F8
:104ED0001D2CFBD101220020114B01001A6004237C
:104EE000104A114D1468002CFCD02C680002013BC4
:104EF00020431160002BF5D101220C4B1A6005F004
:104F0000BBFC01F07DFC04F0C9FC04F0C8FC70BDE2
:104F1000841A0020008000400405000020070020C3
:104F200000D0004000D1004008D5004004D000402F
:104F3000C3070CD4064B1B68834208D8054B1B687B
:104F4000984204D8031F1B68002B00D0180070473C
:104F500054070020500700200023012210B50B4801
:104F6000990001334250802BFAD1094B094C1A6049
:104F700098220021D20020000BF0B4FD97235B01A2
:104F80006360054A054B1A6010BDC0462C2D0020F9
:104F900004000020580700205C0700204C07002078
:104FA00010B5044B044A1A60044B054A1A60FFF717
:104FB000D3FF10BD540700205807002050070020E1
:104FC000180C0020044B1B681868000980B20238D6
:104FD000C343DB17184070474C07002000B59BB057
:104FE0000200054901A80CF063FC01A803F014F8C5
:104FF00003F0B2FAFCE7C046FB4001000B4BC207CE
:1050000004D4042804D80A4B00D00A4B1800704777
:105010000F2203681A40031D042AF7D0064B092A01
:10502000F4D0064B032AF1D0054BEFE7CE40010048
:105030004A3F0100443F0100D8400100E840010020
:10504000DF40010000B59BB002000B0001A804493D
:105050000CF02EFC01A802F0DFFF1BB000BDC04623
:10506000F44001000020064A0649131F1860136827
:105070001B099BB202339B00D2188A42F5D37047BA
:105080005C070020180C0020F7B50F240126314BD7
:10509000314A1968314B324D186813681F00274098
:1050A000072F26D813681B099BB202339B00D21826
:1050B000AA42F2D300242B4EA500AD192868FFF7B1
:1050C00037FF01342860802CF6D1274C2068FFF789
:1050D0002FFF2060254C2068002802D0FFF728FF12
:1050E00020600025224B1B680093009B9D4214DB2F
:1050F000F7BD1B099BB29B00D3189A42D2D01F6800
:10510000374208D1B94206D2B84204D3043F3F68BF
:10511000002F00D01F60043BEFE7F0236B43154ADC
:105120009B181A78002A01D10135DEE71F693C235C
:1051300000266B43DB199B0001930136BB1BF3D4A4
:10514000019BB4001C1B0B4B1C19A069FFF7F0FE60
:10515000A061F2E7540700205C0700205007002000
:10516000180C00202C2D002004000020180C00201A
:10517000F0060020D41B0020F7B50124204246D1C0
:10518000234B1B689C46984241D3224B1B680193DA
:1051900098423CD8031F1B68002B38D102000368DB
:1051A00000941B099BB2002B0FD10099131F1960AB
:1051B00090422CD015682B1F1B68990069180C6849
:1051C000013B14600A602A00EDE79D00551929682B
:1051D000009C214219D18C4517D8019C8C4214D3D4
:1051E0000E1F3468002C10D10F680F343C40072C80
:1051F00008D92F60151F2B600B680A601B099BB232
:105200000A00D0E700993160CDE7013BCBE7F7BD5D
:1052100054070020500700200D4970B50A000D4DBD
:105220001368141F1B0926689BB2981C002E0BD014
:1052300000238A4200D00B0023608300C91880003D
:105240001218AA42ECD370BD1B011360F7E7C046E9
:105250005C070020180C0020F8B5124C27000F2224
:105260003B681D09ADB213420DD06E1CB600A742BB
:1052700004D03200390020000BF021FC0022A319D9
:105280000436A4191A600235AD00074B7F199F42FE
:10529000E5D31B1B9B10013B1B012360034B1C60D0
:1052A000F8BDC0465C070020180C00204C07002009
:1052B000F0B59BB003F03EF901F05CF9FFF71AFC82
:1052C00000240700234AA300D0580134FFF754FFFD
:1052D000802CF7D1204B1868FFF74EFF1F4B186842
:1052E000002801D0FFF748FF00261D4B1B689E4297
:1052F0001BDBFFF791FFFFF7C7FEFFF7ADFFFFF7DF
:10530000F9FB184BC21B1B6817491B6801A81B0936
:105310009BB2023B0CF0CCFA01A802F07DFE03F038
:1053200009F901F027F91BB0F0BDF02575430F4BCB
:10533000ED182B78002B01D10136D6E72B695C1EC6
:10534000002CF9DBA300EB189869FFF715FF013C6F
:10535000F6E7C0462C2D002004000020180C002089
:10536000F00600204C070020AE400100D41B0020B6
:10537000F7B5174D4F1C2B6806001B680C001B0966
:105380009BB201929F420BDBFFF792FF2B681B68D9
:105390001B099BB29F4203DB0A20FCF74DFEFEBDBA
:1053A0002868A71CBA00DB1B81181B010B60296051
:1053B0000021031F19600F231E4003002401264310
:1053C00040C3083A9A189A42E9D9019902C3FAE708
:1053D0004C070020F7B503000122134004000D0024
:1053E0000193002B2BD1174B1B68834227D8164BF8
:1053F0001B68834223D90F23144F3860006818407C
:10540000FFF7B6FF019B3C68061E3B6017D0236880
:1054100004301B099BB29D4200DD1D00AA00211D26
:10542000251F0BF043FBFFF71DFE2E60FFF72CFE40
:1054300000232B602268064B1340236034002000B9
:10544000FEBDC0465407002050070020180C002065
:10545000F0FF0F000323043010B5C11719400918DD
:10546000891000220420FFF783FF10BD70B50500EE
:1054700008000C00FFF7EEFF0023002804D170BDE8
:10548000E95CC21811710133A342F9DBE343DB1776
:105490001C40002304192371F1E7000010B50348F4
:1054A0000BF08EFA43000120184310BD3242010078
:1054B000F0B5FF2485B0071406122740264002915C
:1054C000019203930440B74204DA3D00A74204DD91
:1054D000250002E03500A642FADCB74204DD009761
:1054E000A74204DA009402E00096A642FADB009B91
:1054F0009D420FD10023029A28001360019A136085
:105500000AF0FCFF2B4B002209F0E2FD0BF0B4F88F
:10551000039B1860BD4235D10327341B009B581BE9
:1055200009F070FA051C380009F06CFA061C20001E
:1055300009F068FA291C08F03DFE011C301C09F036
:105540007DF80BF047F800221B4B0AF0CBF91B4B00
:10555000002205F02BFD0BF08FF8029B1860009BDA
:10556000002B1CD10023019A136000980AF0C6FF9B
:105570000022104B09F0ACFD0BF07EF8039B186085
:1055800005B0F0BDB54202D1E41B0527C6E7A54230
:1055900002D1BC1B0127C1E700273C00BEE70098F1
:1055A00009F030FA011C281C08F004FE019B186069
:1055B000DBE7C04600E06F4000004E4000807640D0
:1055C000F0B50C009BB0022804DC1C20FCF734FD75
:1055D0001BB0F0BD01230868184206D1042804D985
:1055E0000F2601683140042901D00E20EEE76168E2
:1055F0000D001D40F9D10429F7D90A683240042A68
:10560000F3D1A2681A4201D10D20DFE7FFF7F6FCC3
:1056100006006068FFF7F2FCA768010001AC7F108C
:105620003000257004F082FA39006423220004F06F
:10563000E2FA20000CF082F901002000FFF716FFCB
:10564000C6E7000010B51C4CA544041E02D1FFF7AC
:1056500001FF0BE004F082F90138062828D808F091
:105660007DFA090911182904240000208023DB0099
:105670009D4410BD200004F0EDF9011B2000FFF750
:10568000F5FEF3E7200004F093F9430001201843EE
:10569000ECE780226946D200200004F0A0F96846B9
:1056A0000CF04CF901006846E9E704210348E6E7FD
:1056B0000020CCE70420D9E700FCFFFF2C420100CA
:1056C00070B50C00022803DC1C20FCF7B5FC70BD93
:1056D00001230868184206D1042804D90F2501685F
:1056E0002940042901D00E20EFE761681942FAD160
:1056F0000429F8D90A682A40042AF4D1A2681A4277
:1057000001D10D20E1E7FFF779FC05006068FFF7A4
:1057100075FCA46801006410280004F007FA210059
:1057200004F044FAFFF78EFFD1E770B50D000128B1
:1057300003DC1C20FCF780FC70BD012408682042BB
:1057400006D1042804D90F2102680A40042A01D096
:105750000E20EFE76A682242FAD1042AF8D91368CA
:105760000B40042BF4D1FFF749FC06006868FFF7F3
:1057700045FC0100300004F0D9F904F05BFA400068
:105780002043D9E7F8B507000C001C20012F0BDDE2
:1057900001250868284206D1042804D90F2102688F
:1057A0000A40042A03D00E20FCF746FCF8BD6268CC
:1057B0002A42F8D1042AF6D913680B40042BF2D1FF
:1057C000FFF71CFC06006068FFF718FC0100022FC1
:1057D00014D0A4682C4211D06410300004F0A6F953
:1057E000050004F0BBF8012811D1002C02DD0135C1
:1057F000012C06D12800FFF725FFD7E701246442DA
:10580000EBE7280004F033F9013C0500F0E702283B
:10581000F0D1002CEEDD0135012CEBD00022280068
:10582000110004F056F904F022F9013C0500F3E7F9
:1058300010B502F0DBFB431E9841800010BD000054
:1058400010B50A4C20000CF079F80100032808D1AB
:105850002000FFF70BFE002802D10A30FCF7ECFB1A
:1058600010BD0020FFF7F6FDF5E7C046D40200208A
:10587000086870B501240500254006D1042804D924
:105880000F2302681340042B03D00E20FCF7D4FB37
:1058900070BDFFF7B3FB03782900233B5A42534105
:1058A0001022C0180CF012F980239B05C218044B7B
:1058B0009A4201D91420E9E740002043E8E7C046B6
:1058C000FFFFFF3F10B50124044002D04410200028
:1058D00010BD042810D90F2302681340042B07D1F0
:1058E000FFF78CFB21000A220CF0F0F80400EEE731
:1058F000032B01D10430F5E70D20FCF79DFBE6E713
:1059000010B50868FFF7DEFFC317C01858400AF04B
:10591000F5FD05F071FD05F0A5FA0AF0B9FD4300AB
:105920000120184310BD000010B50868FFF7CAFF3A
:1059300009F068F8094908F04FFD0AF04BFE05F040
:10594000E9FA074B002209F0CDFF05F08BFA0AF0C7
:105950009FFD43000120184310BDC046D3023739D4
:105960000000D040F7B50C00042803DC1C20FCF735
:1059700063FBFEBD0868FFF7A5FF01906068FFF7B5
:10598000A1FF0600A068FFF79DFF0500E068FFF794
:1059900099FF07002069FFF795FFAE4201D11F2054
:1059A000E5E7019BC01B9B1B5843A91B08F07EF930
:1059B000C71901207F003843DBE70000F0B50D0078
:1059C000A1B0022804DC1C20FCF736FB21B0F0BD9E
:1059D0000868FFF777FF04006868FFF773FF0600A9
:1059E000A868FFF76FFF0F2507000F2E02DCF543B5
:1059F000ED173540224E4022310068460BF056F834
:105A000031004022403110A80BF050F8F917052260
:105A10000023380008F0C6FA00231A4AAE008018A6
:105A200059416B46F258002308F0BCFAE7170D0401
:105A3000020C2A430B14650CF9032943E0030125EA
:105A4000FF246D42240624184D4140206946091860
:105A500088590021A4185D4108F0A4FACE05420A35
:105A600032436008EE074B123043691080185941E9
:105A70002B00220008F052FA430001201843A5E74A
:105A80000C4101003C0500001FB5002804DC1C206F
:105A9000FCF7D2FA05B000BD0868FFF713FF03ABAF
:105AA00002AA01A9FFF704FD03980AF093FD054B34
:105AB000002209F017FF0AF0EBFC43000120184315
:105AC000E8E7C04600005940F8B5012803DC1C2077
